{
  "contractName": "FlashLoan",
  "abi": [
    {
      "inputs": [
        {
          "internalType": "address",
          "name": "_uniswapRouter",
          "type": "address"
        },
        {
          "internalType": "address",
          "name": "_sushiRouter",
          "type": "address"
        },
        {
          "internalType": "address",
          "name": "_uniswapFactory",
          "type": "address"
        },
        {
          "internalType": "address",
          "name": "_sushiFactory",
          "type": "address"
        },
        {
          "internalType": "address",
          "name": "provider",
          "type": "address"
        }
      ],
      "stateMutability": "nonpayable",
      "type": "constructor"
    },
    {
      "inputs": [],
      "name": "ADDRESSES_PROVIDER",
      "outputs": [
        {
          "internalType": "contract ILendingPoolAddressesProvider",
          "name": "",
          "type": "address"
        }
      ],
      "stateMutability": "view",
      "type": "function",
      "constant": true
    },
    {
      "inputs": [],
      "name": "LENDING_POOL",
      "outputs": [
        {
          "internalType": "contract ILendingPool",
          "name": "",
          "type": "address"
        }
      ],
      "stateMutability": "view",
      "type": "function",
      "constant": true
    },
    {
      "inputs": [],
      "name": "getLendPool",
      "outputs": [
        {
          "internalType": "address",
          "name": "",
          "type": "address"
        }
      ],
      "stateMutability": "view",
      "type": "function",
      "constant": true
    },
    {
      "inputs": [
        {
          "internalType": "address[]",
          "name": "assets",
          "type": "address[]"
        },
        {
          "internalType": "uint256[]",
          "name": "amounts",
          "type": "uint256[]"
        },
        {
          "internalType": "uint256[]",
          "name": "premiums",
          "type": "uint256[]"
        },
        {
          "internalType": "bytes",
          "name": "params",
          "type": "bytes"
        }
      ],
      "name": "myFlashLoanCall",
      "outputs": [],
      "stateMutability": "nonpayable",
      "type": "function"
    },
    {
      "inputs": [
        {
          "internalType": "address[]",
          "name": "assets",
          "type": "address[]"
        },
        {
          "internalType": "uint256[]",
          "name": "amounts",
          "type": "uint256[]"
        },
        {
          "internalType": "uint256[]",
          "name": "premiums",
          "type": "uint256[]"
        },
        {
          "internalType": "address",
          "name": "initiator",
          "type": "address"
        },
        {
          "internalType": "bytes",
          "name": "params",
          "type": "bytes"
        }
      ],
      "name": "executeOperation",
      "outputs": [
        {
          "internalType": "bool",
          "name": "",
          "type": "bool"
        }
      ],
      "stateMutability": "nonpayable",
      "type": "function"
    },
    {
      "inputs": [
        {
          "internalType": "uint8",
          "name": "index",
          "type": "uint8"
        }
      ],
      "name": "getToken",
      "outputs": [
        {
          "internalType": "address",
          "name": "",
          "type": "address"
        }
      ],
      "stateMutability": "view",
      "type": "function",
      "constant": true
    },
    {
      "inputs": [
        {
          "internalType": "uint8",
          "name": "index",
          "type": "uint8"
        },
        {
          "internalType": "address",
          "name": "token",
          "type": "address"
        }
      ],
      "name": "setToken",
      "outputs": [],
      "stateMutability": "nonpayable",
      "type": "function"
    }
  ],
  "bytecode": "0x610140604052730bb328abb7a2d948532ab098e80aa5936993055a6000806101000a81548173ffffffffffffffffffffffffffffffffffffffff021916908373ffffffffffffffffffffffffffffffffffffffff16021790555034801561006557600080fd5b506040516125be3803806125be833981810160405260a081101561008857600080fd5b8101908080519060200190929190805190602001909291908051906020019092919080519060200190929190805190602001909291905050508473ffffffffffffffffffffffffffffffffffffffff1660c08173ffffffffffffffffffffffffffffffffffffffff1660601b815250508373ffffffffffffffffffffffffffffffffffffffff1660e08173ffffffffffffffffffffffffffffffffffffffff1660601b815250508273ffffffffffffffffffffffffffffffffffffffff166101008173ffffffffffffffffffffffffffffffffffffffff1660601b815250508173ffffffffffffffffffffffffffffffffffffffff166101208173ffffffffffffffffffffffffffffffffffffffff1660601b815250508073ffffffffffffffffffffffffffffffffffffffff1660808173ffffffffffffffffffffffffffffffffffffffff1660601b815250508073ffffffffffffffffffffffffffffffffffffffff16630261bf8b6040518163ffffffff1660e01b815260040160206040518083038186803b15801561021c57600080fd5b505afa158015610230573d6000803e3d6000fd5b505050506040513d602081101561024657600080fd5b810190808051906020019092919050505073ffffffffffffffffffffffffffffffffffffffff1660a08173ffffffffffffffffffffffffffffffffffffffff1660601b81525050505050505060805160601c60a05160601c60c05160601c60e05160601c6101005160601c6101205160601c61229f61031f60003980610ff6528061165e525080610c085280611373525080610f4252806110ad52806112bf528061139d525080610b545280610cbf52806115aa5280611688525080610565528061071852806108df5250806104f2525061229f6000f3fe608060405234801561001057600080fd5b506004361061007d5760003560e01c80638f56cf781161005b5780638f56cf7814610289578063920f5c84146102bd578063b4dcfc771461046b578063e4105ed51461049f5761007d565b80630542975c1461008257806382b86600146100b6578063835333ae14610111575b600080fd5b61008a6104f0565b604051808273ffffffffffffffffffffffffffffffffffffffff16815260200191505060405180910390f35b6100e5600480360360208110156100cc57600080fd5b81019080803560ff169060200190929190505050610514565b604051808273ffffffffffffffffffffffffffffffffffffffff16815260200191505060405180910390f35b6102876004803603608081101561012757600080fd5b810190808035906020019064010000000081111561014457600080fd5b82018360208201111561015657600080fd5b8035906020019184602083028401116401000000008311171561017857600080fd5b90919293919293908035906020019064010000000081111561019957600080fd5b8201836020820111156101ab57600080fd5b803590602001918460208302840111640100000000831117156101cd57600080fd5b9091929391929390803590602001906401000000008111156101ee57600080fd5b82018360208201111561020057600080fd5b8035906020019184602083028401116401000000008311171561022257600080fd5b90919293919293908035906020019064010000000081111561024357600080fd5b82018360208201111561025557600080fd5b8035906020019184600183028401116401000000008311171561027757600080fd5b9091929391929390505050610557565b005b610291610714565b604051808273ffffffffffffffffffffffffffffffffffffffff16815260200191505060405180910390f35b610453600480360360a08110156102d357600080fd5b81019080803590602001906401000000008111156102f057600080fd5b82018360208201111561030257600080fd5b8035906020019184602083028401116401000000008311171561032457600080fd5b90919293919293908035906020019064010000000081111561034557600080fd5b82018360208201111561035757600080fd5b8035906020019184602083028401116401000000008311171561037957600080fd5b90919293919293908035906020019064010000000081111561039a57600080fd5b8201836020820111156103ac57600080fd5b803590602001918460208302840111640100000000831117156103ce57600080fd5b9091929391929390803573ffffffffffffffffffffffffffffffffffffffff1690602001909291908035906020019064010000000081111561040f57600080fd5b82018360208201111561042157600080fd5b8035906020019184600183028401116401000000008311171561044357600080fd5b909192939192939050505061073c565b60405180821515815260200191505060405180910390f35b6104736108dd565b604051808273ffffffffffffffffffffffffffffffffffffffff16815260200191505060405180910390f35b6104ee600480360360408110156104b557600080fd5b81019080803560ff169060200190929190803573ffffffffffffffffffffffffffffffffffffffff169060200190929190505050610901565b005b7f000000000000000000000000000000000000000000000000000000000000000081565b6000600160008360ff1660ff16815260200190815260200160002060009054906101000a900473ffffffffffffffffffffffffffffffffffffffff169050919050565b6000309050600030905060007f000000000000000000000000000000000000000000000000000000000000000073ffffffffffffffffffffffffffffffffffffffff1663ab9c4b5d848d8d8d8d8d8d8a8e8e8c6040518c63ffffffff1660e01b8152600401808c73ffffffffffffffffffffffffffffffffffffffff1681526020018060200180602001806020018873ffffffffffffffffffffffffffffffffffffffff168152602001806020018661ffff16815260200185810385528f8f82818152602001925060200280828437600081840152601f19601f82011690508083019250505085810384528d8d82818152602001925060200280828437600081840152601f19601f82011690508083019250505085810383528b8b82818152602001925060200280828437600081840152601f19601f8201169050808301925050508581038252888882818152602001925080828437600081840152601f19601f8201169050808301925050509f50505050505050505050505050505050600060405180830381600087803b1580156106ef57600080fd5b505af1158015610703573d6000803e3d6000fd5b505050505050505050505050505050565b60007f0000000000000000000000000000000000000000000000000000000000000000905090565b6000606060008484600081811061074f57fe5b9050013560f81c60f81b60f81c90506000600160008787600181811061077157fe5b9050013560f81c60f81b60f81c60ff1660ff16815260200190815260200160002060009054906101000a900473ffffffffffffffffffffffffffffffffffffffff1690507324a19ee5a5c8757acdebe542a9436d9c796d1c9e73ffffffffffffffffffffffffffffffffffffffff168173ffffffffffffffffffffffffffffffffffffffff161461086a576040517f08c379a00000000000000000000000000000000000000000000000000000000081526004018080602001828103825260088152602001807f6e6f20746f6b656e00000000000000000000000000000000000000000000000081525060200191505060405180910390fd5b6108cb8686600081811061087a57fe5b9050013560f81c60f81b60f81c8e8e600081811061089457fe5b9050602002013573ffffffffffffffffffffffffffffffffffffffff16838e8e60008181106108bf57fe5b9050602002013561095d565b93505050509998505050505050505050565b7f000000000000000000000000000000000000000000000000000000000000000081565b80600160008460ff1660ff16815260200190815260200160002060006101000a81548173ffffffffffffffffffffffffffffffffffffffff021916908373ffffffffffffffffffffffffffffffffffffffff1602179055505050565b6000606080600267ffffffffffffffff8111801561097a57600080fd5b506040519080825280602002602001820160405280156109a95781602001602082028036833780820191505090505b50905085816000815181106109ba57fe5b602002602001019073ffffffffffffffffffffffffffffffffffffffff16908173ffffffffffffffffffffffffffffffffffffffff16815250508481600181518110610a0257fe5b602002602001019073ffffffffffffffffffffffffffffffffffffffff16908173ffffffffffffffffffffffffffffffffffffffff16815250506060600267ffffffffffffffff81118015610a5657600080fd5b50604051908082528060200260200182016040528015610a855781602001602082028036833780820191505090505b5090508581600081518110610a9657fe5b602002602001019073ffffffffffffffffffffffffffffffffffffffff16908173ffffffffffffffffffffffffffffffffffffffff16815250508681600181518110610ade57fe5b602002602001019073ffffffffffffffffffffffffffffffffffffffff16908173ffffffffffffffffffffffffffffffffffffffff168152505060008790506000879050606060006060600060018e60ff1614156112a1578573ffffffffffffffffffffffffffffffffffffffff1663095ea7b37f00000000000000000000000000000000000000000000000000000000000000008d6040518363ffffffff1660e01b8152600401808373ffffffffffffffffffffffffffffffffffffffff16815260200182815260200192505050602060405180830381600087803b158015610bc757600080fd5b505af1158015610bdb573d6000803e3d6000fd5b505050506040513d6020811015610bf157600080fd5b810190808051906020019092919050505050610c2e7f00000000000000000000000000000000000000000000000000000000000000008c8a611a78565b9350600084600186510381518110610c4257fe5b602002602001015111610cbd576040517f08c379a000000000000000000000000000000000000000000000000000000000815260040180806020018281038252601c8152602001807f616d6f756e74526571756972656431206973206e6f742065786973740000000081525060200191505060405180910390fd5b7f000000000000000000000000000000000000000000000000000000000000000073ffffffffffffffffffffffffffffffffffffffff166338ed17398c86600188510381518110610d0a57fe5b60200260200101518b33620d2f0042016040518663ffffffff1660e01b815260040180868152602001858152602001806020018473ffffffffffffffffffffffffffffffffffffffff168152602001838152602001828103825285818151815260200191508051906020019060200280838360005b83811015610d9a578082015181840152602081019050610d7f565b505050509050019650505050505050600060405180830381600087803b158015610dc357600080fd5b505af1158015610dd7573d6000803e3d6000fd5b505050506040513d6000823e3d601f19601f820116820180604052506020811015610e0157600080fd5b8101908080516040519392919084640100000000821115610e2157600080fd5b83820191506020820185811115610e3757600080fd5b8251866020820283011164010000000082111715610e5457600080fd5b8083526020830192505050908051906020019060200280838360005b83811015610e8b578082015181840152602081019050610e70565b50505050905001604052505050600181518110610ea457fe5b6020026020010151925060008311610f24576040517f08c379a000000000000000000000000000000000000000000000000000000000815260040180806020018281038252600f8152602001807f616d6f756e74526563656976656431000000000000000000000000000000000081525060200191505060405180910390fd5b8473ffffffffffffffffffffffffffffffffffffffff1663095ea7b37f0000000000000000000000000000000000000000000000000000000000000000856040518363ffffffff1660e01b8152600401808373ffffffffffffffffffffffffffffffffffffffff16815260200182815260200192505050602060405180830381600087803b158015610fb557600080fd5b505af1158015610fc9573d6000803e3d6000fd5b505050506040513d6020811015610fdf57600080fd5b81019080805190602001909291905050505061101c7f00000000000000000000000000000000000000000000000000000000000000008489611a78565b915060008260018451038151811061103057fe5b6020026020010151116110ab576040517f08c379a000000000000000000000000000000000000000000000000000000000815260040180806020018281038252601c8152602001807f616d6f756e74526571756972656432206973206e6f742065786973740000000081525060200191505060405180910390fd5b7f000000000000000000000000000000000000000000000000000000000000000073ffffffffffffffffffffffffffffffffffffffff166338ed173984846001865103815181106110f857fe5b60200260200101518a33620d2f0042016040518663ffffffff1660e01b815260040180868152602001858152602001806020018473ffffffffffffffffffffffffffffffffffffffff168152602001838152602001828103825285818151815260200191508051906020019060200280838360005b8381101561118857808201518184015260208101905061116d565b505050509050019650505050505050600060405180830381600087803b1580156111b157600080fd5b505af11580156111c5573d6000803e3d6000fd5b505050506040513d6000823e3d601f19601f8201168201806040525060208110156111ef57600080fd5b810190808051604051939291908464010000000082111561120f57600080fd5b8382019150602082018581111561122557600080fd5b825186602082028301116401000000008211171561124257600080fd5b8083526020830192505050908051906020019060200280838360005b8381101561127957808201518184015260208101905061125e565b5050505090500160405250505060018151811061129257fe5b60200260200101519050611878565b8573ffffffffffffffffffffffffffffffffffffffff1663095ea7b37f00000000000000000000000000000000000000000000000000000000000000008d6040518363ffffffff1660e01b8152600401808373ffffffffffffffffffffffffffffffffffffffff16815260200182815260200192505050602060405180830381600087803b15801561133257600080fd5b505af1158015611346573d6000803e3d6000fd5b505050506040513d602081101561135c57600080fd5b8101908080519060200190929190505050506113997f00000000000000000000000000000000000000000000000000000000000000008c8a611a78565b93507f000000000000000000000000000000000000000000000000000000000000000073ffffffffffffffffffffffffffffffffffffffff166338ed17398c866001885103815181106113e857fe5b60200260200101518b33620d2f0042016040518663ffffffff1660e01b815260040180868152602001858152602001806020018473ffffffffffffffffffffffffffffffffffffffff168152602001838152602001828103825285818151815260200191508051906020019060200280838360005b8381101561147857808201518184015260208101905061145d565b505050509050019650505050505050600060405180830381600087803b1580156114a157600080fd5b505af11580156114b5573d6000803e3d6000fd5b505050506040513d6000823e3d601f19601f8201168201806040525060208110156114df57600080fd5b81019080805160405193929190846401000000008211156114ff57600080fd5b8382019150602082018581111561151557600080fd5b825186602082028301116401000000008211171561153257600080fd5b8083526020830192505050908051906020019060200280838360005b8381101561156957808201518184015260208101905061154e565b5050505090500160405250505060018151811061158257fe5b602002602001015192508473ffffffffffffffffffffffffffffffffffffffff1663095ea7b37f0000000000000000000000000000000000000000000000000000000000000000856040518363ffffffff1660e01b8152600401808373ffffffffffffffffffffffffffffffffffffffff16815260200182815260200192505050602060405180830381600087803b15801561161d57600080fd5b505af1158015611631573d6000803e3d6000fd5b505050506040513d602081101561164757600080fd5b8101908080519060200190929190505050506116847f00000000000000000000000000000000000000000000000000000000000000008489611a78565b91507f000000000000000000000000000000000000000000000000000000000000000073ffffffffffffffffffffffffffffffffffffffff166338ed173984846001865103815181106116d357fe5b60200260200101518a33620d2f0042016040518663ffffffff1660e01b815260040180868152602001858152602001806020018473ffffffffffffffffffffffffffffffffffffffff168152602001838152602001828103825285818151815260200191508051906020019060200280838360005b83811015611763578082015181840152602081019050611748565b505050509050019650505050505050600060405180830381600087803b15801561178c57600080fd5b505af11580156117a0573d6000803e3d6000fd5b505050506040513d6000823e3d601f19601f8201168201806040525060208110156117ca57600080fd5b81019080805160405193929190846401000000008211156117ea57600080fd5b8382019150602082018581111561180057600080fd5b825186602082028301116401000000008211171561181d57600080fd5b8083526020830192505050908051906020019060200280838360005b83811015611854578082015181840152602081019050611839565b5050505090500160405250505060018151811061186d57fe5b602002602001015190505b6103e88b8161188357fe5b048b01811161189e5760009950505050505050505050611a70565b6000611912576040517f08c379a000000000000000000000000000000000000000000000000000000000815260040180806020018281038252600b8152602001807f66696e697368207377617000000000000000000000000000000000000000000081525060200191505060405180910390fd5b8573ffffffffffffffffffffffffffffffffffffffff1663a9059cbb60008054906101000a900473ffffffffffffffffffffffffffffffffffffffff166103e88e8161195a57fe5b048e8503016040518363ffffffff1660e01b8152600401808373ffffffffffffffffffffffffffffffffffffffff16815260200182815260200192505050602060405180830381600087803b1580156119b257600080fd5b505af11580156119c6573d6000803e3d6000fd5b505050506040513d60208110156119dc57600080fd5b8101908080519060200190929190505050506000611a62576040517f08c379a00000000000000000000000000000000000000000000000000000000081526004018080602001828103825260098152602001807f73776170546f6b656e000000000000000000000000000000000000000000000081525060200191505060405180910390fd5b600199505050505050505050505b949350505050565b6060600282511015611af2576040517f08c379a000000000000000000000000000000000000000000000000000000000815260040180806020018281038252601e8152602001807f556e697377617056324c6962726172793a20494e56414c49445f50415448000081525060200191505060405180910390fd5b815167ffffffffffffffff81118015611b0a57600080fd5b50604051908082528060200260200182016040528015611b395781602001602082028036833780820191505090505b5090508281600081518110611b4a57fe5b60200260200101818152505060005b6001835103811015611be857600080611b9c87868581518110611b7857fe5b6020026020010151876001870181518110611b8f57fe5b6020026020010151611bf0565b91509150611bbe848481518110611baf57fe5b60200260200101518383611d19565b846001850181518110611bcd57fe5b60200260200101818152505050508080600101915050611b59565b509392505050565b6000806000611bff8585611e49565b509050600080611c10888888611fc0565b73ffffffffffffffffffffffffffffffffffffffff16630902f1ac6040518163ffffffff1660e01b815260040160606040518083038186803b158015611c5557600080fd5b505afa158015611c69573d6000803e3d6000fd5b505050506040513d6060811015611c7f57600080fd5b81019080805190602001909291908051906020019092919080519060200190929190505050506dffffffffffffffffffffffffffff1691506dffffffffffffffffffffffffffff1691508273ffffffffffffffffffffffffffffffffffffffff168773ffffffffffffffffffffffffffffffffffffffff1614611d03578082611d06565b81815b8095508196505050505050935093915050565b6000808411611d73576040517f08c379a000000000000000000000000000000000000000000000000000000000815260040180806020018281038252602b81526020018061223f602b913960400191505060405180910390fd5b600083118015611d835750600082115b611dd8576040517f08c379a00000000000000000000000000000000000000000000000000000000081526004018080602001828103825260288152602001806122176028913960400191505060405180910390fd5b6000611def6103e5866120d990919063ffffffff16565b90506000611e0684836120d990919063ffffffff16565b90506000611e3183611e236103e8896120d990919063ffffffff16565b61216e90919063ffffffff16565b9050808281611e3c57fe5b0493505050509392505050565b6000808273ffffffffffffffffffffffffffffffffffffffff168473ffffffffffffffffffffffffffffffffffffffff161415611ed1576040517f08c379a00000000000000000000000000000000000000000000000000000000081526004018080602001828103825260258152602001806121f26025913960400191505060405180910390fd5b8273ffffffffffffffffffffffffffffffffffffffff168473ffffffffffffffffffffffffffffffffffffffff1610611f0b578284611f0e565b83835b8092508193505050600073ffffffffffffffffffffffffffffffffffffffff168273ffffffffffffffffffffffffffffffffffffffff161415611fb9576040517f08c379a000000000000000000000000000000000000000000000000000000000815260040180806020018281038252601e8152602001807f556e697377617056324c6962726172793a205a45524f5f41444452455353000081525060200191505060405180910390fd5b9250929050565b6000806000611fcf8585611e49565b91509150858282604051602001808373ffffffffffffffffffffffffffffffffffffffff1660601b81526014018273ffffffffffffffffffffffffffffffffffffffff1660601b8152601401925050506040516020818303038152906040528051906020012060405160200180807fff000000000000000000000000000000000000000000000000000000000000008152506001018373ffffffffffffffffffffffffffffffffffffffff1660601b8152601401828152602001807f96e8ac4277198ff8b6f785478aa9a39f403cb768dd02cbee326c3e7da348845f815250602001925050506040516020818303038152906040528051906020012060001c925050509392505050565b6000808214806120f657508282838502925082816120f357fe5b04145b612168576040517f08c379a00000000000000000000000000000000000000000000000000000000081526004018080602001828103825260148152602001807f64732d6d6174682d6d756c2d6f766572666c6f7700000000000000000000000081525060200191505060405180910390fd5b92915050565b60008282840191508110156121eb576040517f08c379a00000000000000000000000000000000000000000000000000000000081526004018080602001828103825260148152602001807f64732d6d6174682d6164642d6f766572666c6f7700000000000000000000000081525060200191505060405180910390fd5b9291505056fe556e697377617056324c6962726172793a204944454e544943414c5f414444524553534553556e697377617056324c6962726172793a20494e53554646494349454e545f4c4951554944495459556e697377617056324c6962726172793a20494e53554646494349454e545f494e5055545f414d4f554e54a2646970667358221220bad8a13a83cec7587e1a946303a2fd62dcd5bfcfcef5c8294ec9daad193fd03a64736f6c634300060c0033",
  "immutableReferences": {
    "19": [
      {
        "length": 32,
        "start": 1266
      }
    ],
    "22": [
      {
        "length": 32,
        "start": 1381
      },
      {
        "length": 32,
        "start": 1816
      },
      {
        "length": 32,
        "start": 2271
      }
    ],
    "28": [
      {
        "length": 32,
        "start": 2900
      },
      {
        "length": 32,
        "start": 3263
      },
      {
        "length": 32,
        "start": 5546
      },
      {
        "length": 32,
        "start": 5768
      }
    ],
    "30": [
      {
        "length": 32,
        "start": 3906
      },
      {
        "length": 32,
        "start": 4269
      },
      {
        "length": 32,
        "start": 4799
      },
      {
        "length": 32,
        "start": 5021
      }
    ],
    "32": [
      {
        "length": 32,
        "start": 3080
      },
      {
        "length": 32,
        "start": 4979
      }
    ],
    "34": [
      {
        "length": 32,
        "start": 4086
      },
      {
        "length": 32,
        "start": 5726
      }
    ]
  },
  "source": "pragma solidity >=0.4.22 <0.9.0;\n\nimport \"@aave/protocol-v2/contracts/flashloan/interfaces/IFlashLoanReceiver.sol\";\nimport {ILendingPoolAddressesProvider} from '@aave/protocol-v2/contracts/interfaces/ILendingPoolAddressesProvider.sol';\nimport \"@aave/protocol-v2/contracts/dependencies/openzeppelin/contracts/IERC20.sol\";\nimport \"@uniswap/v2-core/contracts/interfaces/IUniswapV2Factory.sol\";\nimport \"@uniswap/v2-periphery/contracts/libraries/UniswapV2Library.sol\";\nimport \"@uniswap/v2-periphery/contracts/interfaces/IUniswapV2Router02.sol\";\n\n//aave0x7d2768de32b0b80b7a3454c06bdac94a69ddc7a9\n//aave\ncontract FlashLoan is IFlashLoanReceiver {\n\n    address sender = 0x0bb328ABb7a2d948532Ab098e80aa5936993055a;\n    uint constant deadline = 10 days;\n\n    ILendingPoolAddressesProvider public immutable override ADDRESSES_PROVIDER;\n    ILendingPool public immutable override LENDING_POOL;\n\n    mapping(uint8 => address) private indexToToken;\n\n    IUniswapV2Router02 immutable uniswapRouter;\n    IUniswapV2Router02 immutable sushiRouter;\n\n    IUniswapV2Factory immutable uniswapFactory;\n    IUniswapV2Factory immutable sushiFactory;\n\n    constructor (\n        address _uniswapRouter,\n        address _sushiRouter,\n        address _uniswapFactory,\n        address _sushiFactory,\n        address provider\n    ) public {\n        uniswapRouter = IUniswapV2Router02(_uniswapRouter);\n        sushiRouter = IUniswapV2Router02(_sushiRouter);\n        uniswapFactory = IUniswapV2Factory(_uniswapFactory);\n        sushiFactory = IUniswapV2Factory(_sushiFactory);\n        ADDRESSES_PROVIDER = ILendingPoolAddressesProvider(provider);\n        LENDING_POOL = ILendingPool(ILendingPoolAddressesProvider(provider).getLendingPool());\n    }\n\n    function getLendPool() external view returns (address) {\n        return address(LENDING_POOL);\n    }\n\n    function myFlashLoanCall(\n        address[] calldata assets,\n        uint256[] calldata amounts,\n        uint256[] calldata premiums,\n        bytes calldata params\n    ) external {\n        address receiverAddress = address(this);\n\n        address onBehalfOf = address(this);\n        uint16 referralCode = 0;\n\n        LENDING_POOL.flashLoan(\n            receiverAddress,\n            assets,\n            amounts,\n            premiums,\n            onBehalfOf,\n            params,\n            referralCode\n        );\n    }\n\n    function executeOperation(\n        address[] calldata assets,\n        uint256[] calldata amounts,\n        uint256[] calldata premiums,\n        address initiator,\n        bytes calldata params\n    ) external override returns (bool) {\n        \n        uint8[] memory p;\n\n        uint8 dexPath = uint8(params[0]);\n        address exchangeToken = indexToToken[uint8(params[1])];\n\n        require(exchangeToken == 0x24a19eE5A5C8757ACDEBe542a9436D9C796d1c9E, \"no token\");\n\n        return swapToken(uint8(params[0]), assets[0], exchangeToken, amounts[0]);\n    }\n\n    /**\n        param: \n            param = 1uniswap v2assetexchangeTokensushiswapexchangeTokenasset\n            param = 2sushiswapassetexchangeTokenuniswap v2exchangeTokenasset\n        amountasset\n    **/\n    function swapToken(\n        uint8 dexPath,\n        address asset,\n        address exchangeToken,\n        uint256 amount\n    ) internal returns (bool) {\n\n        bytes memory data;\n        address[] memory path1 = new address[](2);   //\n        path1[0] = asset;\n        path1[1] = exchangeToken;\n\n        address[] memory path2 = new address[](2);   //\n        path2[0] = exchangeToken;\n        path2[1] = asset;\n\n        IERC20 tokenA = IERC20(asset);\n        IERC20 tokenE = IERC20(exchangeToken);\n\n        uint[] memory amountRequired1;\n        uint amountReceived1;\n        uint[] memory amountRequired2;\n        uint amountReceived2;\n\n        if (dexPath == 1) {\n\n            tokenA.approve(address(uniswapRouter), amount);\n            amountRequired1 = UniswapV2Library.getAmountsOut(address(uniswapFactory), amount, path1);   //ET\n            require(amountRequired1[amountRequired1.length - 1] > 0, \"amountRequired1 is not exist\");\n            amountReceived1 = uniswapRouter.swapExactTokensForTokens(amount, amountRequired1[amountRequired1.length - 1], path1, msg.sender, now + deadline)[1];\n            \n            require(amountReceived1 > 0, \"amountReceived1\");\n            tokenE.approve(address(sushiRouter), amountReceived1);\n            amountRequired2 = UniswapV2Library.getAmountsOut(address(sushiFactory), amountReceived1, path2);   //ET\n            require(amountRequired2[amountRequired2.length - 1] > 0, \"amountRequired2 is not exist\");\n            amountReceived2 = sushiRouter.swapExactTokensForTokens(amountReceived1, amountRequired2[amountRequired2.length - 1], path2, msg.sender, now + deadline)[1];\n            \n        } else {\n            tokenA.approve(address(sushiRouter), amount);\n            amountRequired1 = UniswapV2Library.getAmountsOut(address(uniswapFactory), amount, path1);   //ET\n            amountReceived1 = sushiRouter.swapExactTokensForTokens(amount, amountRequired1[amountRequired1.length - 1], path1, msg.sender, now + deadline)[1];\n\n            tokenE.approve(address(uniswapRouter), amountReceived1);\n            amountRequired2 = UniswapV2Library.getAmountsOut(address(sushiFactory), amountReceived1, path2);   //ET\n            amountReceived2 = uniswapRouter.swapExactTokensForTokens(amountReceived1, amountRequired2[amountRequired2.length - 1], path2, msg.sender, now + deadline)[1];\n        }\n\n        if (amountReceived2 <= amount + amount / 1000) {\n            return false;\n        }\n        require(false, \"finish swap\");\n\n        tokenA.transfer(sender, amountReceived2 - amount + amount / 1000);\n\n        require(false, \"swapToken\");\n\n        return true;\n    }\n\n    function getToken(uint8 index) external view returns (address) {\n        return indexToToken[index];\n    }\n\n    function setToken(uint8 index, address token) external {\n        indexToToken[index] = token;\n    }\n}",
  "sourcePath": "/Users/pengyun/Desktop/project_private/flash-loan/aave-flash-loan/contracts/FlashLoan.sol",
  "compiler": {
    "name": "solc",
    "version": "0.6.12+commit.27d51765.Emscripten.clang"
  },
  "schemaVersion": "3.3.3",
  "updatedAt": "2022-03-31T12:36:11.703Z",
  "networkType": "ethereum",
  "devdoc": {
    "kind": "dev",
    "methods": {},
    "version": 1
  },
  "userdoc": {
    "kind": "user",
    "methods": {},
    "version": 1
  }
}